{
  "abi": [
    {
      "inputs": [
        {
          "internalType": "address[]",
          "name": "_authorizedSigners",
          "type": "address[]"
        },
        {
          "internalType": "uint256",
          "name": "quorun",
          "type": "uint256"
        }
      ],
      "stateMutability": "nonpayable",
      "type": "constructor"
    },
    {
      "inputs": [],
      "name": "MultiSignatureWallet__NotOwner",
      "type": "error"
    },
    {
      "anonymous": false,
      "inputs": [
        {
          "indexed": false,
          "internalType": "uint256",
          "name": "transactionID",
          "type": "uint256"
        },
        {
          "indexed": false,
          "internalType": "address",
          "name": "destination",
          "type": "address"
        },
        {
          "indexed": false,
          "internalType": "uint256",
          "name": "value",
          "type": "uint256"
        },
        {
          "indexed": false,
          "internalType": "address",
          "name": "sender",
          "type": "address"
        }
      ],
      "name": "TransactionExecuted",
      "type": "event"
    },
    {
      "anonymous": false,
      "inputs": [
        {
          "indexed": false,
          "internalType": "uint256",
          "name": "transactionID",
          "type": "uint256"
        },
        {
          "indexed": false,
          "internalType": "address",
          "name": "approver",
          "type": "address"
        }
      ],
      "name": "TransactionsApproved",
      "type": "event"
    },
    {
      "inputs": [
        {
          "internalType": "uint256",
          "name": "transactionID",
          "type": "uint256"
        }
      ],
      "name": "approveTransaction",
      "outputs": [],
      "stateMutability": "nonpayable",
      "type": "function"
    },
    {
      "inputs": [
        {
          "internalType": "address",
          "name": "",
          "type": "address"
        }
      ],
      "name": "authorizedSigners",
      "outputs": [
        {
          "internalType": "bool",
          "name": "",
          "type": "bool"
        }
      ],
      "stateMutability": "view",
      "type": "function"
    },
    {
      "inputs": [
        {
          "internalType": "uint256",
          "name": "transactionID",
          "type": "uint256"
        }
      ],
      "name": "executeTransaction",
      "outputs": [],
      "stateMutability": "nonpayable",
      "type": "function"
    },
    {
      "inputs": [],
      "name": "getTransactionCount",
      "outputs": [
        {
          "internalType": "uint256",
          "name": "",
          "type": "uint256"
        }
      ],
      "stateMutability": "view",
      "type": "function"
    },
    {
      "inputs": [],
      "name": "getTransactionList",
      "outputs": [
        {
          "components": [
            {
              "internalType": "address",
              "name": "destination",
              "type": "address"
            },
            {
              "internalType": "uint256",
              "name": "value",
              "type": "uint256"
            },
            {
              "internalType": "address",
              "name": "sender",
              "type": "address"
            },
            {
              "internalType": "string",
              "name": "data",
              "type": "string"
            },
            {
              "internalType": "uint256",
              "name": "numberOfApprovals",
              "type": "uint256"
            },
            {
              "internalType": "bool",
              "name": "executed",
              "type": "bool"
            }
          ],
          "internalType": "struct MultiSignatureWallet.transactionParameters[]",
          "name": "",
          "type": "tuple[]"
        }
      ],
      "stateMutability": "view",
      "type": "function"
    },
    {
      "inputs": [],
      "name": "i_owner",
      "outputs": [
        {
          "internalType": "address",
          "name": "",
          "type": "address"
        }
      ],
      "stateMutability": "view",
      "type": "function"
    },
    {
      "inputs": [
        {
          "internalType": "uint256",
          "name": "transactionID",
          "type": "uint256"
        },
        {
          "internalType": "address",
          "name": "destination",
          "type": "address"
        },
        {
          "internalType": "uint256",
          "name": "value",
          "type": "uint256"
        },
        {
          "internalType": "string",
          "name": "data",
          "type": "string"
        }
      ],
      "name": "proposeTransaction",
      "outputs": [],
      "stateMutability": "nonpayable",
      "type": "function"
    },
    {
      "inputs": [],
      "name": "transactionCount",
      "outputs": [
        {
          "internalType": "uint256",
          "name": "",
          "type": "uint256"
        }
      ],
      "stateMutability": "view",
      "type": "function"
    },
    {
      "inputs": [
        {
          "internalType": "uint256",
          "name": "",
          "type": "uint256"
        }
      ],
      "name": "transactionList",
      "outputs": [
        {
          "internalType": "address",
          "name": "destination",
          "type": "address"
        },
        {
          "internalType": "uint256",
          "name": "value",
          "type": "uint256"
        },
        {
          "internalType": "address",
          "name": "sender",
          "type": "address"
        },
        {
          "internalType": "string",
          "name": "data",
          "type": "string"
        },
        {
          "internalType": "uint256",
          "name": "numberOfApprovals",
          "type": "uint256"
        },
        {
          "internalType": "bool",
          "name": "executed",
          "type": "bool"
        }
      ],
      "stateMutability": "view",
      "type": "function"
    }
  ],
  "bytecode": {
    "object": "0x60c06040523480156200001157600080fd5b5060405162001121380380620011218339810160408190526200003491620000e7565b3360805260a081905260005b8251811015620000ab576001600080858481518110620000645762000064620001c1565b6020908102919091018101516001600160a01b03168252810191909152604001600020805460ff191691151591909117905580620000a281620001d7565b91505062000040565b505050620001ff565b634e487b7160e01b600052604160045260246000fd5b80516001600160a01b0381168114620000e257600080fd5b919050565b60008060408385031215620000fb57600080fd5b82516001600160401b03808211156200011357600080fd5b818501915085601f8301126200012857600080fd5b81516020828211156200013f576200013f620000b4565b8160051b604051601f19603f83011681018181108682111715620001675762000167620000b4565b6040529283528183019350848101820192898411156200018657600080fd5b948201945b83861015620001af576200019f86620000ca565b855294820194938201936200018b565b97909101519698969750505050505050565b634e487b7160e01b600052603260045260246000fd5b600060018201620001f857634e487b7160e01b600052601160045260246000fd5b5060010190565b60805160a051610ee76200023a600039600081816103a50152818161046501526108e101526000818161015601526107e00152610ee76000f3fe608060405234801561001057600080fd5b50600436106100935760003560e01c80635d2b6a4e116100665780635d2b6a4e14610102578063a1ffbd1b14610135578063b77bf60014610148578063dba6335f14610151578063ee22610b1461019057600080fd5b806304ef5b2114610098578063242232d1146100c65780632d85ea7e146100db5780632e7700f0146100f0575b600080fd5b6100ab6100a6366004610aa5565b6101a3565b6040516100bd96959493929190610b04565b60405180910390f35b6100d96100d4366004610aa5565b610286565b005b6100e36104f3565b6040516100bd9190610b51565b6001545b6040519081526020016100bd565b610125610110366004610c1e565b60006020819052908152604090205460ff1681565b60405190151581526020016100bd565b6100d9610143366004610c56565b610633565b6100f460015481565b6101787f000000000000000000000000000000000000000000000000000000000000000081565b6040516001600160a01b0390911681526020016100bd565b6100d961019e366004610aa5565b6107d5565b600281815481106101b357600080fd5b600091825260209091206006909102018054600182015460028301546003840180546001600160a01b03948516965092949390911692916101f390610d2b565b80601f016020809104026020016040519081016040528092919081815260200182805461021f90610d2b565b801561026c5780601f106102415761010080835404028352916020019161026c565b820191906000526020600020905b81548152906001019060200180831161024f57829003601f168201915b50505050600483015460059093015491929160ff16905086565b3360009081526020819052604090205460ff166102e25760405162461bcd60e51b81526020600482015260156024820152742737ba1030baba3437b934bd32b21039b4b3b732b960591b60448201526064015b60405180910390fd5b600254811061032c5760405162461bcd60e51b8152602060048201526016602482015275125b9d985b1a5919481d1c985b9cd858dd1a5bdb925160521b60448201526064016102d9565b6002818154811061033f5761033f610d65565b600091825260209091206005600690920201015460ff16156103a35760405162461bcd60e51b815260206004820152601c60248201527f5472616e73616374696f6e20616c72656164792065786563757465640000000060448201526064016102d9565b7f0000000000000000000000000000000000000000000000000000000000000000600282815481106103d7576103d7610d65565b906000526020600020906006020160040154106104275760405162461bcd60e51b815260206004820152600e60248201526d1c5d5bdc9d5b881c995858da195960921b60448201526064016102d9565b60016002828154811061043c5761043c610d65565b9060005260206000209060060201600401600082825461045c9190610d7b565b925050819055507f00000000000000000000000000000000000000000000000000000000000000006002828154811061049757610497610d65565b906000526020600020906006020160040154106104b7576104b7816107d5565b604080518281523360208201527fcdffca1b73f06b7b1f0ce811ff0ed842707140b35db442463ca89642d52f12d491015b60405180910390a150565b60606002805480602002602001604051908101604052809291908181526020016000905b8282101561062a5760008481526020908190206040805160c0810182526006860290920180546001600160a01b03908116845260018201549484019490945260028101549093169082015260038201805491929160608401919061057a90610d2b565b80601f01602080910402602001604051908101604052809291908181526020018280546105a690610d2b565b80156105f35780601f106105c8576101008083540402835291602001916105f3565b820191906000526020600020905b8154815290600101906020018083116105d657829003601f168201915b5050509183525050600482015460208083019190915260059092015460ff1615156040909101529082526001929092019101610517565b50505050905090565b60018060008282546106459190610d7b565b90915550506040805160c0810182526001600160a01b03808616825260208201858152339383019384526060830185815260006080850181905260a08501819052600280546001810182559152845160069091027f405787fa12a823e0f2b7631cc41b3ba8828b3321ca811111fa75cd3aa3bb5ace810180549286166001600160a01b031993841617815593517f405787fa12a823e0f2b7631cc41b3ba8828b3321ca811111fa75cd3aa3bb5acf82015595517f405787fa12a823e0f2b7631cc41b3ba8828b3321ca811111fa75cd3aa3bb5ad087018054919095169116179092559051919290917f405787fa12a823e0f2b7631cc41b3ba8828b3321ca811111fa75cd3aa3bb5ad19091019061075c9082610df1565b50608082810151600483015560a0909201516005909101805460ff1916911515919091179055604080518681526001600160a01b03861660208201529081018490523360608201527fb9c894cc5badd9a596bcf1d7949be8962e4bb21e603be5af74ba8bf3264895b8910160405180910390a150505050565b336001600160a01b037f0000000000000000000000000000000000000000000000000000000000000000161461081e576040516312ad33e760e21b815260040160405180910390fd5b60025481106108685760405162461bcd60e51b8152602060048201526016602482015275125b9d985b1a5919481d1c985b9cd858dd1a5bdb925160521b60448201526064016102d9565b6002818154811061087b5761087b610d65565b600091825260209091206005600690920201015460ff16156108df5760405162461bcd60e51b815260206004820152601c60248201527f5472616e73616374696f6e20616c72656164792065786563757465640000000060448201526064016102d9565b7f00000000000000000000000000000000000000000000000000000000000000006002828154811061091357610913610d65565b90600052602060002090600602016004015410156109685760405162461bcd60e51b81526020600482015260126024820152711c5d5bdc9d5b881b9bdd081c995858da195960721b60448201526064016102d9565b60016002828154811061097d5761097d610d65565b906000526020600020906006020160050160006101000a81548160ff021916908315150217905550600281815481106109b8576109b8610d65565b600091825260209091206005600690920201015460ff1615610aa2577fb9c894cc5badd9a596bcf1d7949be8962e4bb21e603be5af74ba8bf3264895b88160028381548110610a0957610a09610d65565b6000918252602090912060069091020154600280546001600160a01b039092169185908110610a3a57610a3a610d65565b90600052602060002090600602016001015460028581548110610a5f57610a5f610d65565b600091825260209182902060069091020160020154604080519586526001600160a01b0394851692860192909252908401919091521660608201526080016104e8565b50565b600060208284031215610ab757600080fd5b5035919050565b6000815180845260005b81811015610ae457602081850181015186830182015201610ac8565b506000602082860101526020601f19601f83011685010191505092915050565b6001600160a01b038781168252602082018790528516604082015260c060608201819052600090610b3790830186610abe565b60808301949094525090151560a090910152949350505050565b60006020808301818452808551808352604092508286019150828160051b87010184880160005b83811015610bf457888303603f19018552815180516001600160a01b039081168552888201518986015287820151168785015260608082015160c08287018190529190610bc783880182610abe565b6080858101519089015260a094850151151594909701939093525050509386019390860190600101610b78565b509098975050505050505050565b80356001600160a01b0381168114610c1957600080fd5b919050565b600060208284031215610c3057600080fd5b610c3982610c02565b9392505050565b634e487b7160e01b600052604160045260246000fd5b60008060008060808587031215610c6c57600080fd5b84359350610c7c60208601610c02565b925060408501359150606085013567ffffffffffffffff80821115610ca057600080fd5b818701915087601f830112610cb457600080fd5b813581811115610cc657610cc6610c40565b604051601f8201601f19908116603f01168101908382118183101715610cee57610cee610c40565b816040528281528a6020848701011115610d0757600080fd5b82602086016020830137600060208483010152809550505050505092959194509250565b600181811c90821680610d3f57607f821691505b602082108103610d5f57634e487b7160e01b600052602260045260246000fd5b50919050565b634e487b7160e01b600052603260045260246000fd5b80820180821115610d9c57634e487b7160e01b600052601160045260246000fd5b92915050565b601f821115610dec57600081815260208120601f850160051c81016020861015610dc95750805b601f850160051c820191505b81811015610de857828155600101610dd5565b5050505b505050565b815167ffffffffffffffff811115610e0b57610e0b610c40565b610e1f81610e198454610d2b565b84610da2565b602080601f831160018114610e545760008415610e3c5750858301515b600019600386901b1c1916600185901b178555610de8565b600085815260208120601f198616915b82811015610e8357888601518255948401946001909101908401610e64565b5085821015610ea15787850151600019600388901b60f8161c191681555b5050505050600190811b0190555056fea26469706673582212203da2a05286942d96a78c5e022563d489e1619efdebbf39ee50429b7ce44fe65664736f6c63430008150033",
    "linkReferences": {}
  },
  "methodIdentifiers": {
    "approveTransaction(uint256)": "242232d1",
    "authorizedSigners(address)": "5d2b6a4e",
    "executeTransaction(uint256)": "ee22610b",
    "getTransactionCount()": "2e7700f0",
    "getTransactionList()": "2d85ea7e",
    "i_owner()": "dba6335f",
    "proposeTransaction(uint256,address,uint256,string)": "a1ffbd1b",
    "transactionCount()": "b77bf600",
    "transactionList(uint256)": "04ef5b21"
  },
  "id": 20
}